{
  "_format": "hh-sol-artifact-1",
  "contractName": "SmartContract",
  "sourceName": "contracts/SmartContract.sol",
  "abi": [
    {
      "anonymous": false,
      "inputs": [
        {
          "indexed": true,
          "internalType": "address",
          "name": "from",
          "type": "address"
        },
        {
          "indexed": true,
          "internalType": "address",
          "name": "receiver",
          "type": "address"
        },
        {
          "indexed": false,
          "internalType": "uint256",
          "name": "amount",
          "type": "uint256"
        },
        {
          "indexed": false,
          "internalType": "string",
          "name": "message",
          "type": "string"
        },
        {
          "indexed": false,
          "internalType": "uint256",
          "name": "timestamp",
          "type": "uint256"
        }
      ],
      "name": "Transfer",
      "type": "event"
    },
    {
      "inputs": [
        {
          "internalType": "uint256[6]",
          "name": "limits",
          "type": "uint256[6]"
        },
        {
          "internalType": "address payable[]",
          "name": "receivers",
          "type": "address[]"
        },
        {
          "internalType": "string",
          "name": "message",
          "type": "string"
        }
      ],
      "name": "addTransaction",
      "outputs": [],
      "stateMutability": "payable",
      "type": "function"
    },
    {
      "inputs": [],
      "name": "getAllTransaction",
      "outputs": [
        {
          "components": [
            {
              "internalType": "address",
              "name": "sender",
              "type": "address"
            },
            {
              "internalType": "address",
              "name": "receiver",
              "type": "address"
            },
            {
              "internalType": "uint256",
              "name": "amount",
              "type": "uint256"
            },
            {
              "internalType": "string",
              "name": "message",
              "type": "string"
            },
            {
              "internalType": "uint256",
              "name": "timestamp",
              "type": "uint256"
            }
          ],
          "internalType": "struct SmartContract.TransferStruct[]",
          "name": "",
          "type": "tuple[]"
        }
      ],
      "stateMutability": "view",
      "type": "function"
    },
    {
      "inputs": [],
      "name": "getTransactionCount",
      "outputs": [
        {
          "internalType": "uint256",
          "name": "",
          "type": "uint256"
        }
      ],
      "stateMutability": "view",
      "type": "function"
    }
  ],
  "bytecode": "0x608060405234801561001057600080fd5b50611736806100206000396000f3fe6080604052600436106100345760003560e01c80631665020c146100395780632e7700f014610055578063add6415d14610080575b600080fd5b610053600480360381019061004e9190610e19565b6100ab565b005b34801561006157600080fd5b5061006a610792565b6040516100779190611268565b60405180910390f35b34801561008c57600080fd5b5061009561079b565b6040516100a291906111a6565b60405180910390f35b600680146100ee576040517f08c379a00000000000000000000000000000000000000000000000000000000081526004016100e590611228565b60405180910390fd5b6000825111610132576040517f08c379a000000000000000000000000000000000000000000000000000000000815260040161012990611208565b60405180910390fd5b60003373ffffffffffffffffffffffffffffffffffffffff16311161018c576040517f08c379a0000000000000000000000000000000000000000000000000000000008152600401610183906111e8565b60405180910390fd5b600034116101cf576040517f08c379a00000000000000000000000000000000000000000000000000000000081526004016101c690611248565b60405180910390fd5b6000600a6003346101e0919061146c565b6101ea919061143b565b9050600084600060068110610228577f4e487b7100000000000000000000000000000000000000000000000000000000600052603260045260246000fd5b602002015185600160068110610267577f4e487b7100000000000000000000000000000000000000000000000000000000600052603260045260246000fd5b602002015161027691906114c6565b905060008183610286919061143b565b90506000866000600681106102c4577f4e487b7100000000000000000000000000000000000000000000000000000000600052603260045260246000fd5b602002015190505b86600160068110610306577f4e487b7100000000000000000000000000000000000000000000000000000000600052603260045260246000fd5b60200201518110156103bb5761035e3387838151811061034f577f4e487b7100000000000000000000000000000000000000000000000000000000600052603260045260246000fd5b6020026020010151848861094c565b6103a886828151811061039a577f4e487b7100000000000000000000000000000000000000000000000000000000600052603260045260246000fd5b602002602001015183610b13565b80806103b3906115bc565b9150506102cc565b50600a6001346103cb919061146c565b6103d5919061143b565b925085600260068110610411577f4e487b7100000000000000000000000000000000000000000000000000000000600052603260045260246000fd5b602002015186600360068110610450577f4e487b7100000000000000000000000000000000000000000000000000000000600052603260045260246000fd5b602002015161045f91906114c6565b9150818361046d919061143b565b90506000866002600681106104ab577f4e487b7100000000000000000000000000000000000000000000000000000000600052603260045260246000fd5b602002015190505b866003600681106104ed577f4e487b7100000000000000000000000000000000000000000000000000000000600052603260045260246000fd5b60200201518110156105a25761054533878381518110610536577f4e487b7100000000000000000000000000000000000000000000000000000000600052603260045260246000fd5b6020026020010151848861094c565b61058f868281518110610581577f4e487b7100000000000000000000000000000000000000000000000000000000600052603260045260246000fd5b602002602001015183610b13565b808061059a906115bc565b9150506104b3565b50600a6006346105b2919061146c565b6105bc919061143b565b9250856004600681106105f8577f4e487b7100000000000000000000000000000000000000000000000000000000600052603260045260246000fd5b602002015186600560068110610637577f4e487b7100000000000000000000000000000000000000000000000000000000600052603260045260246000fd5b602002015161064691906114c6565b91508183610654919061143b565b9050600086600460068110610692577f4e487b7100000000000000000000000000000000000000000000000000000000600052603260045260246000fd5b602002015190505b866005600681106106d4577f4e487b7100000000000000000000000000000000000000000000000000000000600052603260045260246000fd5b60200201518110156107895761072c3387838151811061071d577f4e487b7100000000000000000000000000000000000000000000000000000000600052603260045260246000fd5b6020026020010151848861094c565b610776868281518110610768577f4e487b7100000000000000000000000000000000000000000000000000000000600052603260045260246000fd5b602002602001015183610b13565b8080610781906115bc565b91505061069a565b50505050505050565b60008054905090565b60606001805480602002602001604051908101604052809291908181526020016000905b8282101561094357838290600052602060002090600502016040518060a00160405290816000820160009054906101000a900473ffffffffffffffffffffffffffffffffffffffff1673ffffffffffffffffffffffffffffffffffffffff1673ffffffffffffffffffffffffffffffffffffffff1681526020016001820160009054906101000a900473ffffffffffffffffffffffffffffffffffffffff1673ffffffffffffffffffffffffffffffffffffffff1673ffffffffffffffffffffffffffffffffffffffff168152602001600282015481526020016003820180546108a89061158a565b80601f01602080910402602001604051908101604052809291908181526020018280546108d49061158a565b80156109215780601f106108f657610100808354040283529160200191610921565b820191906000526020600020905b81548152906001019060200180831161090457829003601f168201915b50505050508152602001600482015481525050815260200190600101906107bf565b50505050905090565b600160008082825461095e91906113e5565b9250508190555060016040518060a001604052808673ffffffffffffffffffffffffffffffffffffffff1681526020018573ffffffffffffffffffffffffffffffffffffffff16815260200184815260200183815260200142815250908060018154018082558091505060019003906000526020600020906005020160009091909190915060008201518160000160006101000a81548173ffffffffffffffffffffffffffffffffffffffff021916908373ffffffffffffffffffffffffffffffffffffffff16021790555060208201518160010160006101000a81548173ffffffffffffffffffffffffffffffffffffffff021916908373ffffffffffffffffffffffffffffffffffffffff160217905550604082015181600201556060820151816003019080519060200190610a97929190610bc4565b506080820151816004015550508273ffffffffffffffffffffffffffffffffffffffff168473ffffffffffffffffffffffffffffffffffffffff167fc4b32d7ff75a51e487f3cbb5d3202f2efecca1f4c2b987e0039c1d3220b48a83848442604051610b0593929190611283565b60405180910390a350505050565b60008273ffffffffffffffffffffffffffffffffffffffff1682604051610b3990611191565b60006040518083038185875af1925050503d8060008114610b76576040519150601f19603f3d011682016040523d82523d6000602084013e610b7b565b606091505b5050905080610bbf576040517f08c379a0000000000000000000000000000000000000000000000000000000008152600401610bb6906111c8565b60405180910390fd5b505050565b828054610bd09061158a565b90600052602060002090601f016020900481019282610bf25760008555610c39565b82601f10610c0b57805160ff1916838001178555610c39565b82800160010185558215610c39579182015b82811115610c38578251825591602001919060010190610c1d565b5b509050610c469190610c4a565b5090565b5b80821115610c63576000816000905550600101610c4b565b5090565b6000610c7a610c75846112f2565b6112c1565b90508083825260208201905082856020860282011115610c9957600080fd5b60005b85811015610cc95781610caf8882610d74565b845260208401935060208301925050600181019050610c9c565b5050509392505050565b6000610ce6610ce18461131e565b6112c1565b90508082856020860282011115610cfc57600080fd5b60005b85811015610d2c5781610d128882610e04565b845260208401935060208301925050600181019050610cff565b5050509392505050565b6000610d49610d4484611344565b6112c1565b905082815260208101848484011115610d6157600080fd5b610d6c848285611548565b509392505050565b600081359050610d83816116d2565b92915050565b600082601f830112610d9a57600080fd5b8135610daa848260208601610c67565b91505092915050565b600082601f830112610dc457600080fd5b6006610dd1848285610cd3565b91505092915050565b600082601f830112610deb57600080fd5b8135610dfb848260208601610d36565b91505092915050565b600081359050610e13816116e9565b92915050565b60008060006101008486031215610e2f57600080fd5b6000610e3d86828701610db3565b93505060c084013567ffffffffffffffff811115610e5a57600080fd5b610e6686828701610d89565b92505060e084013567ffffffffffffffff811115610e8357600080fd5b610e8f86828701610dda565b9150509250925092565b6000610ea583836110fd565b905092915050565b610eb6816114fa565b82525050565b6000610ec782611384565b610ed181856113a7565b935083602082028501610ee385611374565b8060005b85811015610f1f5784840389528151610f008582610e99565b9450610f0b8361139a565b925060208a01995050600181019050610ee7565b50829750879550505050505092915050565b6000610f3c8261138f565b610f4681856113c3565b9350610f56818560208601611557565b610f5f816116c1565b840191505092915050565b6000610f758261138f565b610f7f81856113d4565b9350610f8f818560208601611557565b610f98816116c1565b840191505092915050565b6000610fb06014836113d4565b91507f4661696c656420746f2073656e642045746865720000000000000000000000006000830152602082019050919050565b6000610ff06014836113d4565b91507f496e73756666696369656e742062616c616e63650000000000000000000000006000830152602082019050919050565b60006110306016836113d4565b91507f4e6f2072656365697665727320737065636966696564000000000000000000006000830152602082019050919050565b6000611070601b836113d4565b91507f496e76616c6964206c696d697473206172726179206c656e67746800000000006000830152602082019050919050565b60006110b06000836113b8565b9150600082019050919050565b60006110ca6012836113d4565b91507f56616c7565206e6f742070726f766964656400000000000000000000000000006000830152602082019050919050565b600060a0830160008301516111156000860182610ead565b5060208301516111286020860182610ead565b50604083015161113b6040860182611173565b50606083015184820360608601526111538282610f31565b91505060808301516111686080860182611173565b508091505092915050565b61117c8161153e565b82525050565b61118b8161153e565b82525050565b600061119c826110a3565b9150819050919050565b600060208201905081810360008301526111c08184610ebc565b905092915050565b600060208201905081810360008301526111e181610fa3565b9050919050565b6000602082019050818103600083015261120181610fe3565b9050919050565b6000602082019050818103600083015261122181611023565b9050919050565b6000602082019050818103600083015261124181611063565b9050919050565b60006020820190508181036000830152611261816110bd565b9050919050565b600060208201905061127d6000830184611182565b92915050565b60006060820190506112986000830186611182565b81810360208301526112aa8185610f6a565b90506112b96040830184611182565b949350505050565b6000604051905081810181811067ffffffffffffffff821117156112e8576112e7611692565b5b8060405250919050565b600067ffffffffffffffff82111561130d5761130c611692565b5b602082029050602081019050919050565b600067ffffffffffffffff82111561133957611338611692565b5b602082029050919050565b600067ffffffffffffffff82111561135f5761135e611692565b5b601f19601f8301169050602081019050919050565b6000819050602082019050919050565b600081519050919050565b600081519050919050565b6000602082019050919050565b600082825260208201905092915050565b600081905092915050565b600082825260208201905092915050565b600082825260208201905092915050565b60006113f08261153e565b91506113fb8361153e565b9250827fffffffffffffffffffffffffffffffffffffffffffffffffffffffffffffffff038211156114305761142f611605565b5b828201905092915050565b60006114468261153e565b91506114518361153e565b92508261146157611460611634565b5b828204905092915050565b60006114778261153e565b91506114828361153e565b9250817fffffffffffffffffffffffffffffffffffffffffffffffffffffffffffffffff04831182151516156114bb576114ba611605565b5b828202905092915050565b60006114d18261153e565b91506114dc8361153e565b9250828210156114ef576114ee611605565b5b828203905092915050565b60006115058261151e565b9050919050565b60006115178261151e565b9050919050565b600073ffffffffffffffffffffffffffffffffffffffff82169050919050565b6000819050919050565b82818337600083830152505050565b60005b8381101561157557808201518184015260208101905061155a565b83811115611584576000848401525b50505050565b600060028204905060018216806115a257607f821691505b602082108114156115b6576115b5611663565b5b50919050565b60006115c78261153e565b91507fffffffffffffffffffffffffffffffffffffffffffffffffffffffffffffffff8214156115fa576115f9611605565b5b600182019050919050565b7f4e487b7100000000000000000000000000000000000000000000000000000000600052601160045260246000fd5b7f4e487b7100000000000000000000000000000000000000000000000000000000600052601260045260246000fd5b7f4e487b7100000000000000000000000000000000000000000000000000000000600052602260045260246000fd5b7f4e487b7100000000000000000000000000000000000000000000000000000000600052604160045260246000fd5b6000601f19601f8301169050919050565b6116db8161150c565b81146116e657600080fd5b50565b6116f28161153e565b81146116fd57600080fd5b5056fea2646970667358221220ab7d83610037a05b7035e270dcd2c68912b4886d68e3279a0534a396e8b08bbb64736f6c63430008000033",
  "linkReferences": {},
  "deployedLinkReferences": {}
}